S01700004763634170706C69636174696F6E312E737265635B
S11300000C943E000C9450000C9450000C9450003E
S11300100C9450000C9450000C9450000C9450001C
S11300200C9450000C9450000C9450000C9450000C
S11300300C9450000C9450000C9450000C945000FC
S11300400C9450000C9450000C9450000C945000EC
S11300500C9450000C9452000C9450000C945000DA
S11300600C9450000C9450000C9450000C945000CC
S11300700C9450000C9450000C94500011241FBE9A
S1130080CFEFCDBFDFE3DEBF28E3A0E0B8E301C0DC
S11300901D92A430B207E1F70E94CD000C947902BE
S11300A00C9400001F920F920FB60F921124FFCFF1
S11300B0E0E6F0E0108281E081830895E0E0FAE078
S11300C081E083839FEF97A396A311A210A297E7E1
S11300D09183808311A613A615A610A612A614A6B2
S11300E094E090930202E0E2F4E0818382E0818371
S11300F080E28183E0E0F4E098E0918390E19183F1
S113010081830895CF93DF93E0E0F6E086E0818376
S113011086E1828383E0808382E0868381E0808736
S113012080910B0680FDFCCFC0E0D6E06889798918
S113013080E090E00E947E0126E033E544E65AE345
S11301400E940C0260930038709301388093023847
S11301509093033820E030E040E450E40E94DD0056
S11301600E944F0170E080E090E00E94800120E056
S113017030E040E450E40E940C0226E033E544E61B
S11301805AE30E94DD000E944F016B8B82E08A8754
S113019081E08C83DF91CF9108950E9458000E94E2
S11301A05E000E948200E0E0FAE08FE781A783A767
S11301B085A780A782A784A7F6CF0E94F1000C949C
S11301C0D2010E94CB0158F00E94C40140F029F4EE
S11301D05F3F29F00C94BB0151110C9406020C945E
S11301E0C1010E94E30168F39923B1F3552391F30C
S11301F0951B550BBB27AA2762177307840738F092
S11302009F5F5F4F220F331F441FAA1FA9F335D0EE
S11302100E2E3AF0E0E832D091505040E695001CA2
S1130220CAF72BD0FE2F29D0660F771F881FBB1F5C
S1130230261737074807AB07B0E809F0BB0B802D3A
S1130240BF01FF2793585F4F3AF09E3F510578F066
S11302500C94BB010C9406025F3FE4F3983ED4F384
S1130260869577956795B795F7959F5FC9F7880F3A
S1130270911D9695879597F90895E1E0660F771F8C
S1130280881FBB1F621773078407BA0720F0621B1D
S1130290730B840BBA0BEE1F88F7E09508950E9448
S11302A0EB0188F09F5798F0B92F9927B751B0F018
S11302B0E1F0660F771F881F991F1AF0BA95C9F7E6
S11302C014C0B13091F00E940502B1E008950C947D
S11302D00502672F782F8827B85F39F0B93FCCF330
S11302E0869577956795B395D9F73EF49095809563
S11302F0709561957F4F8F4F9F4F0895E89409C083
S113030097FB3EF490958095709561957F4F8F4F44
S11303109F4F9923A9F0F92F96E9BB279395F6955A
S1130320879577956795B795F111F8CFFAF4BB0FD8
S113033011F460FF1BC06F5F7F4F8F4F9F4F16C03C
S1130340882311F096E911C0772321F09EE8872FC6
S1130350762F05C0662371F096E8862F70E060E082
S11303602AF09A95660F771F881FDAF7880F9695FB
S1130370879597F9089597F99F6780E870E060E0A2
S113038008959FEF80EC089500240A94161617062A
S113039018060906089500240A9412161306140672
S11303A005060895092E0394000C11F4882352F0D5
S11303B0BB0F40F4BF2B11F460FF04C06F5F7F4F8D
S11303C08F4F9F4F089557FD9058440F551F59F074
S11303D05F3F71F04795880F97FB991F61F09F3F2E
S11303E079F087950895121613061406551FF2CF57
S11303F04695F1DF08C0161617061806991FF1CFA7
S113040086957105610508940895E894BB276627CD
S11304107727CB0197F908950E941F020C94D2010B
S11304200E94C40138F00E94CB0120F0952311F002
S11304300C94BB010C94C10111240C9406020E947B
S1130440E30170F3959FC1F3950F50E0551F629F30
S1130450F001729FBB27F00DB11D639FAA27F00D19
S1130460B11DAA1F649F6627B00DA11D661F829F40
S11304702227B00DA11D621F739FB00DA11D621F25
S1130480839FA00D611D221F749F3327A00D611D42
S1130490231F849F600D211D822F762F6A2F112424
S11304A09F5750409AF0F1F088234AF0EE0FFF1F57
S11304B0BB1F661F771F881F91505040A9F79E3FAE
S11304C0510580F00C94BB010C9406025F3FE4F3E9
S11304D0983ED4F3869577956795B795F795E79504
S11304E09F5FC1F7FE2B880F911D9695879597F90D
S10904F00895F894FFCF0B
S9030000FC
